:100000000C9446010C9471010C9471010C947101D3
:100010000C9471010C9471010C9471010C94710198
:100020000C9471010C9471010C9471010C94710188
:100030000C9471010C9471010C9471010C94710178
:100040000C9471010C9471010C9471010C94710168
:100050000C9471010C9471010C9471010C94590F62
:100060000C9471010C9471110C9471010C94710138
:100070000C9471010C9471010C9471010C94710138
:100080000C9471010C9471010C9471010C94710128
:100090000C94B2110C9471010C9471010C947101C7
:1000A0000C9471010C9471010C9471010C94710108
:1000B0000C9471010C9471010C9471010C947101F8
:1000C0000C9471010C9471010C9471010C94F31156
:1000D0000C9471010C9471010C9434120C94710104
:1000E0000C947101084AD73B3BCE016E84BCBFFD26
:1000F000C12F3D6C74319ABD56833DDA3D00C77FF8
:1001000011BED9E4BB4C3E916BAAAABE0000008090
:100110003F05A84CCDB2D44EB93836A9020C50B91F
:10012000918688083CA6AAAA2ABE000000803F004B
:10013000002100240027002A002D00300033000198
:10014000010000040107010A010000220025002827
:10015000002B002E003100340002010000050108D0
:10016000010B01000020002300260029002C002F95
:100170000032000001000003010601090105050528
:1001800005070508080808020202020A0A0808040E
:10019000040404010101010101010103030303033C
:1001A000030303040707070C0C0C0C0C0C0C0C02CB
:1001B00002020206060606060606060B0B0B0B0BD2
:1001C0000B0B0B01021020200808102040102040CB
:1001D000800201020108040201010204081020400B
:1001E0008080402010080402018004020180402029
:1001F0001008040201080402010102040810204052
:100200008001020408102040800000090A02080B47
:100210000C0D0706030401000000000000000000B0
:1002200000000000000000000000000000000000CE
:100230000000000000100F0E000000000000000091
:100240000000000000000000000000000000004965
:100250004E46494E4954594E414ECDCCCC3D0AD71D
:10026000233C17B7D13877CC2B329595E6241FB1B4
:100270004F0A000020410000C84200401C4620BC3C
:10028000BE4CCA1B0E5AAEC59D74BD1311241FBEB1
:10029000CFEFD1E2DEBFCDBF12E0A0E0B2E0E8EBED
:1002A000F4E300E00BBF02C007900D92A433B10746
:1002B000D9F71BBE15E0A4E3B2E001C01D92A5373B
:1002C000B107E1F712E0CCE8D2E004C02297FE01CA
:1002D0000E94141ACA38D107C9F70E94520F0C9411
:1002E0005A1A0C940000A0E0B0E0E9E7F1E00C94A9
:1002F000291AEC015B016115710519F0FB0191836D
:100300008083F9908F2D90E00E94181A892BC9F7ED
:10031000FDE2FF1621F4F990EE24E39405C02BE2F0
:10032000F21609F4F990EE248E0101501040C80134
:100330006FE472E043E050E00E94D302892B01F5A4
:100340008E010E5F1F4FC80162E572E045E050E08C
:100350000E94D302892B19F48E01095F1F4FA1144B
:10036000B10419F0F50111830083E0FC04C070E0D2
:1003700090E080E814C070E090E080E86FEF08C182
:10038000C80167E572E043E050E00E94D302892B88
:1003900069F4A114B10429F470E090E080EC6FE7F7
:1003A000F7C02296F501D183C083F6CF8824992423
:1003B00040E050E060E070E0EF2DE053EA30A0F55F
:1003C000F2E0EF2A8E2D90E09C0128703070E2FE62
:1003D00006C0232B79F50894811C911C2BC0232B7C
:1003E00019F0089481089108DB01CA0112E0880F16
:1003F000991FAA1FBB1F1A95D1F7480F591F6A1FD3
:100400007B1F440F551F661F771F4E0F511D611D27
:10041000711D483929E9520729E9620729E1720764
:1004200048F084E0E82A06C0EE3F31F4E3FC39C02E
:1004300098E0E92AF990C0CFE53311F0E53189F56C
:1004400029912D3219F4E0E1EE2A05C02B3219F082
:1004500081E090E003C0299182E090E0E22FE05338
:10046000EA3018F0C81BD90B1CC020E030E0FCE0DB
:1004700020383F075CF4C901880F991F880F991F26
:10048000280F391F220F331F2E0F311DE991E05322
:10049000EA3068F3E4FE03C0309521953F4F820EA9
:1004A000931ECE2CDD24E1FE07C0A114B10421F07F
:1004B0002197F501D183C083CB01BA010E94571760
:1004C0007B018C01F3E0CF22DD2423E0C216D104AE
:1004D00021F417FB109517F9109557016801C80111
:1004E000B70120E030E040E050E00E94B7168823DA
:1004F00009F44AC097FE0DC02EE6E22E22E0F22E4D
:100500009094819491089394C0E2D0E000E010E0D0
:1005100012C096E8E92E92E0F92EF6CFF701259168
:10052000359145915491C601B5010E94BD185B01FA
:100530006C018C1A9D0A8C169D0684F7D595C7957B
:100540000F5F1F4F0630110529F08CEF9FEFE80E6B
:10055000F91EF1CFC501D6017C018D018C2D880FCC
:100560008D2D881F8F3F51F0C601B50120E030E08E
:1005700040E050E00E94B716882331F482E290E018
:1005800090937405809373057E2D9F2D802F612F8E
:10059000272F392F482F562FB901CA01CDB7DEB703
:1005A000ECE00C94451AFB01DC014150504088F00E
:1005B0008D9181341CF08B350CF4805E6591613433
:1005C0001CF06B350CF4605E861B611171F3990BA6
:1005D0000895881BFCCF8FE060E00E945A108FE0E6
:1005E00060E00E945A108FE060E00E945A10089567
:1005F0002F923F924F925F926F927F928F929F9233
:10060000AF92BF92CF92DF92EF92FF920F931F9320
:10061000DF93CF93CDB7DEB7A0970FB6F894DEBFC8
:100620000FBECDBF8091C3029091C402A091C502BC
:10063000B091C6028D8F9E8FAF8FB8A38091B70205
:100640009091B802A091B902B091BA02898F9A8FA5
:10065000AB8FBC8F6D8D7E8D8F8D98A1298D3A8D3E
:100660004B8D5C8D0E94DD157B018C0120E030E01C
:1006700040E050E00E94B218181624F017FB1095C5
:1006800017F91095E092CF02F092D0020093D102B8
:100690001093D2028091C7029091C802A091C90222
:1006A000B091CA028D8B9E8BAF8BB88F8091BB02AD
:1006B0009091BC02A091BD02B091BE02898B9A8B31
:1006C000AB8BBC8B6D897E898F89988D29893A89FE
:1006D0004B895C890E94DD157B018C0120E030E0B4
:1006E00040E050E00E94B218181624F017FB109555
:1006F00017F91095E092D302F092D4020093D5023C
:100700001093D6028091CB029091CC02A091CD02A1
:10071000B091CE028D879E87AF87B88B8091BF0244
:100720009091C002A091C102B091C20289879A87BC
:10073000AB87BC876D857E858F85988929853A85AD
:100740004B855C850E94DD157B018C0120E030E04B
:1007500040E050E00E94B218181624F017FB1095E4
:1007600017F91095E092D702F092D8020093D902BF
:100770001093DA02E0901702F0901802009119022B
:1007800010911A02C801B701298D3A8D4B8D5C8DED
:100790000E94BD180E9426170E9459171B012C01A8
:1007A0006093DB027093DC028093DD029093DE02A3
:1007B00060901B0270901C0280901D0290901E029F
:1007C000C401B30129893A894B895C890E94BD180B
:1007D0000E9426170E9459176D837E838F83988706
:1007E0006093DF027093E0028093E1029093E20253
:1007F000A0901F02B0902002C0902102D09022024F
:10080000C601B50129853A854B855C850E94BD18D6
:100810000E9426170E94591769837A838B839C83D1
:100820006093E3027093E4028093E5029093E60202
:10083000C801B7012D8D3E8D4F8D58A10E94BD1866
:100840000E9426170E9459177B018C016093E702D2
:100850007093E8028093E9029093EA02C401B30125
:100860002D893E894F89588D0E94BD180E942617F8
:100870000E9459173B014C016093EB027093EC020C
:100880008093ED029093EE02C601B5012D853E8561
:100890004F8558890E94BD180E9426170E9459173B
:1008A0005B016C016093EF027093F0028093F102A0
:1008B0009093F202C801B701A20191010E94DD15D7
:1008C0007B018C0120E030E040E050E00E94B21853
:1008D000181624F017FB109517F91095E092F30203
:1008E000F092F4020093F5021093F602C401B301F2
:1008F0002D813E814F8158850E94DD157B018C0141
:1009000020E030E040E050E00E94B218181624F0D9
:1009100017FB109517F91095E092F702F092F80284
:100920000093F9021093FA02C601B50129813A81B8
:100930004B815C810E94DD157B018C0120E030E061
:1009400040E050E00E94B218181624F017FB1095F2
:1009500017F91095E092FB02F092FC020093FD0261
:100960001093FE0210E06D8D7E8D8F8D98A1298DE4
:100970003A8D4B8D5C8D0E94B21888230CF011E0EB
:1009800010932702109228026D897E898F89988D95
:1009900029893A894B895C890E94B21888231CF006
:1009A00081E080932802109229026D857E858F85D3
:1009B000988929853A854B855C850E94B2188823E1
:1009C0001CF081E08093290289E0612F0E945A1077
:1009D0008BE0609128020E945A108DE060912902FC
:1009E0000E945A10A0960FB6F894DEBF0FBECDBF7E
:1009F000CF91DF911F910F91FF90EF90DF90CF90FB
:100A0000BF90AF909F908F907F906F905F904F902E
:100A10003F902F9008952F923F924F925F926F9246
:100A20007F928F929F92AF92BF92CF92DF92EF927E
:100A3000FF920F931F93DF93CF93CDB7DEB7289725
:100A40000FB6F894DEBF0FBECDBF6D837E838F835C
:100A500098876090CF027090D0028090D1029090E1
:100A6000D2022090D3023090D4024090D502509010
:100A7000D6028091D7029091D802A091D902B0916C
:100A8000DA0289839A83AB83BC83A090F302B0908F
:100A9000F402C090F502D090F602E090F702F090D8
:100AA000F8020091F9021091FA02C601B501A801FD
:100AB00097010E94B21818168CF4E090FB02F09097
:100AC000FC020091FD021091FE02C801B701A601CF
:100AD00095010E94B21818168CF413C0A090FB0266
:100AE000B090FC02C090FD02D090FE02C601B5019C
:100AF000A80197010E94B21818161CF4C601B5018E
:100B000002C0C801B7010E9426175B016C01C40135
:100B1000B301A40193010E94BD187B018C01C201A5
:100B2000B101A20191010E94BD189B01AC01C80155
:100B3000B7010E94DE157B018C0169817A818B816E
:100B40009C819B01AC010E94BD189B01AC01C801B6
:100B5000B7010E94DE150E942A1928E13DE04FE00E
:100B60005EE40E94BD182D813E814F8158850E9410
:100B7000BE167B018C01C601B5010E9459179B016D
:100B8000AC01C801B7010E94BE160E9426179B0146
:100B9000AC01CA0128960FB6F894DEBF0FBECDBFD8
:100BA000CF91DF911F910F91FF90EF90DF90CF9049
:100BB000BF90AF909F908F907F906F905F904F907D
:100BC0003F902F9008956091FB027091FC028091FC
:100BD000FD029091FE0220E030E040E050E00E94F3
:100BE000B21818163CF460E070E088EC92E40E94C1
:100BF0000B05089560E070E088EC92E40E940B051C
:100C000008951F93182F0E94E510892B11F420E0FE
:100C100007C0812F0E94E51020E0892B09F021E018
:100C2000822F1F910895CF92DF92EF92FF920F9340
:100C30001F93D62EE216F3060407150759F00E94FB
:100C40000106882379F0CC2069F404C080E0CC2030
:100C500011F40DC080E01F910F91FF90EF90DF9095
:100C6000CF9008958D2D0E940106882379F781E0A9
:100C7000F2CFCF92DF92EF92FF920F931F93D82E75
:100C8000C62E042F0E94E5107C018C2D0E94E510D9
:100C90009701220F331F282B392B10E0000F111F53
:100CA000000F111F202B312B2330310501F124308F
:100CB00031054CF421303105A9F022303105A4F47E
:100CC000232B71F018C02530310551F02530310546
:100CD0005CF02630310559F02730310561F402C04F
:100CE0008D2D03C08C2D04C08C2D61E002C08D2D94
:100CF00060E00E945A1085E090E00E94CB0F1F91A7
:100D00000F91FF90EF90DF90CF9008952F923F9238
:100D10004F925F926F927F928F929F92AF92BF920B
:100D2000CF92DF92EF92FF920F931F93DF93CF93B7
:100D3000CDB7DEB72A970FB6F894DEBF0FBECDBF92
:100D40006F83788789879A878FE061E00E945A10C5
:100D50008FE061E00E945A108FE061E00E945A101B
:100D6000A090F302B090F402C090F502D090F60289
:100D7000E090F702F090F8020091F9021091FA0267
:100D8000C601B501A80197010E94B21818161CF4FB
:100D9000C601B50102C0C801B7010E942617A09084
:100DA000FB02B090FC02C090FD02D090FE020E94B7
:100DB00059177B018C01C601B501A80197010E945A
:100DC000B21818161CF4C601B50102C0C801B7015B
:100DD0000E942617609308037093090380930A0307
:100DE00090930B0322E030E040E050E00E94E319D2
:100DF000662477244301621A730A840A950A2F81B4
:100E0000388549855A852F3F8FE3380780E04807AA
:100E100080E058076CF0CA01B90128EE33E040E0E9
:100E200050E00E94E31930930D0320930C0304C09B
:100E300010920D0310920C036B827C828D829E8235
:100E4000130124016091DB027091DC028091DD02CC
:100E50009091DE020E9426175B016C016091E7020F
:100E60007091E8028091E9029091EA020E942617AF
:100E70007B018C0184E062E0A6019501C09027020D
:100E80000E9413068A836091DF027091E0028091D4
:100E9000E1029091E2020E9426175B016C016091D1
:100EA000EB027091EC028091ED029091EE020E94B3
:100EB00026177B018C0183E065E0A6019501C090B7
:100EC00028020E94130689836091E3027091E40274
:100ED0008091E5029091E6020E9426175B016C0169
:100EE0006091EF027091F0028091F1029091F20214
:100EF0000E9426177B018C0187E066E0A601950120
:100F0000C09029020E941306182F9A81992309F490
:100F100052C0C401B3010E9459172091F3023091CD
:100F2000F4024091F5025091F6020E94DE150E94F3
:100F300026173B014C011616170618061906DCF594
:100F400088E069E0409127020E94390680910803F9
:100F500090910903A0910A03B0910B03681A790AD2
:100F60008A0A9B0A80912702882379F06091DB022C
:100F70007091DC028091DD029091DE0220E030E091
:100F800040E85FE30E94DE150EC06091DB027091C5
:100F9000DC028091DD029091DE0220E030E040E84A
:100FA0005FE30E94DD156093DB027093DC028093A7
:100FB000DD029093DE02A981AA2309F45FC06B8150
:100FC0007C818D819E810E9459172091F70230917A
:100FD000F8024091F9025091FA020E94DE150E9437
:100FE00026176B837C838D839E831616170618063F
:100FF00019060CF043C08AE06BE0409128020E9481
:1010000039068091080390910903A0910A03B091D9
:101010000B032B813C814D815E81281B390B4A0BD0
:101020005B0B2B833C834D835E8380912802882356
:1010300079F06091DF027091E0028091E10290917D
:10104000E20220E030E040E85FE30E94DE150EC0DF
:101050006091DF027091E0028091E1029091E202E2
:1010600020E030E040E85FE30E94DD156093DF029E
:101070007093E0028093E1029093E202112309F45D
:1010800052C0C201B1010E9459172091FB02309158
:10109000FC024091FD025091FE020E94DE150E946A
:1010A00026171B012C011616170618061906DCF563
:1010B0008CE06DE0409129020E943906809108037E
:1010C00090910903A0910A03B0910B03281A390AE1
:1010D0004A0A5B0A80912902882379F06091E30231
:1010E0007091E4028091E5029091E60220E030E008
:1010F00040E85FE30E94DE150EC06091E30270914C
:10110000E4028091E5029091E60220E030E040E8C0
:101110005FE30E94DD156093E3027093E402809325
:10112000E5029093E60220910C0330910D03121614
:10113000130644F4B901882777FD8095982F0E9403
:10114000A10F04C08F8198850E94CB0F3A81332371
:1011500009F078CE4981442309F074CE112309F0B7
:1011600071CE8091C3029091C402A091C502B0914A
:10117000C6028093B7029093B802A093B902B093CD
:10118000BA028091C7029091C802A091C902B091A1
:10119000CA028093BB029093BC02A093BD02B0939D
:1011A000BE028091CB029091CC02A091CD02B09171
:1011B000CE028093BF029093C002A093C102B0936D
:1011C000C2020E94F8022A960FB6F894DEBF0FBE44
:1011D000CDBFCF91DF911F910F91FF90EF90DF90E6
:1011E000CF90BF90AF909F908F907F906F905F90C7
:1011F0004F903F902F9008950E94EB0280E090E086
:10120000A0E0B0E08093B7029093B802A093B90237
:10121000B093BA028093BB029093BC02A093BD022C
:10122000B093BE028093BF029093C002A093C1020C
:10123000B093C2028093C3029093C402A093C502EC
:10124000B093C6028093C7029093C802A093C902CC
:10125000B093CA028093CB029093CC02A093CD02AC
:10126000B093CE0288E061E00E943A1089E061E02C
:101270000E943A108FE061E00E943A1084E060E042
:101280000E943A1082E060E00E943A108AE061E039
:101290000E943A108BE061E00E943A108FE061E01A
:1012A0000E943A1083E060E00E943A1085E060E01E
:1012B0000E943A108CE061E00E943A108DE061E0FB
:1012C0000E943A108FE061E00E943A1087E060E0EF
:1012D0000E943A1086E060E00E943A100E94F802F4
:1012E0000895DF93CF93CDB7DEB72A970FB6F89462
:1012F000DEBF0FBECDBF282F19821A821B821C822F
:10130000FE01359686E0DF011D928A95E9F790E0AF
:1013100024C0E60FF71F80819F5F8217F1F4DE0182
:1013200011969E01255F3F4F09C0E60FF71F808190
:10133000882361F0803251F08D939F5FE92FF0E0B8
:10134000E417F5071CF4A217B30779F7CE0101964D
:1013500060E070E00E94730109C0E92FF0E0E4173B
:10136000F507BCF260E070E080E090E02A960FB6EE
:10137000F894DEBF0FBECDBFCF91DF9108952F92BD
:101380003F924F925F926F927F928F929F92AF9215
:10139000BF92CF92DF92EF92FF920F931F93DF9352
:1013A000CF93CDB7DEB7A1970FB6F894DEBF0FBECF
:1013B000CDBF99A388A37F8B6E8BDC018C918F327C
:1013C00009F4A2C490E008C028A139A1E20FF31FDC
:1013D00080818734E1F19F5FE92FF0E0AE89BF891A
:1013E000EA17FB078CF390E008C028A139A1E20FAF
:1013F000F31F8081883559F19F5FE92FF0E0AE89B6
:10140000BF89EA17FB078CF390E008C028A139A137
:10141000E20FF31F80818935D1F09F5FE92FF0E063
:10142000AE89BF89EA17FB078CF390E008C028A1BA
:1014300039A1E20FF31F80818A3549F09F5FE92FC0
:10144000F0E0AE89BF89EA17FB078CF333C487E469
:1014500068A179A14E895F890E9471090E942617AF
:101460006D87643088F0188E198E1A8E1B8E0F2EA1
:10147000F0E06F2EF0E07F2EF0E08F2EF0E09F2E58
:10148000F02D6401530190C08091FF02882309F47C
:1014900050C090E008C028A139A1E20FF31F80815D
:1014A000883549F09F5FE92FF0E0AE89BF89EA17E0
:1014B000FB078CF348C488E568A179A14E895F8950
:1014C0000E9471095B016C0190E008C028A139A15C
:1014D000E20FF31F8081893549F09F5FE92FF0E02B
:1014E000AE89BF89EA17FB078CF336C489E568A18A
:1014F00079A14E895F890E9471093B014C0190E0FE
:1015000008C028A139A1E20FF31F80818A3549F074
:101510009F5FE92FF0E0AE89BF89EA17FB078CF3E4
:1015200024C48AE568A179A14E895F890E94710966
:1015300037C088E568A179A14E895F890E94710949
:101540002091B7023091B8024091B9025091BA028D
:101550000E94DE155B016C0189E568A179A14E89C5
:101560005F890E9471092091BB023091BC024091B9
:10157000BD025091BE020E94DE153B014C018AE57E
:1015800068A179A14E895F890E9471092091BF02EB
:101590003091C0024091C1025091C2020E94DE15FA
:1015A000688F798F8A8F9B8FBD85B43109F424C2EF
:1015B000B53158F4B43020F4B23008F086C01DC004
:1015C000ED85E43009F065C307C2FD85FE3109F4FD
:1015D00080C2FF3138F4F53109F42FC2FC3109F033
:1015E00058C354C22D852B3509F431C32C3509F469
:1015F00031C32A3509F04DC326C3A092C302B0926D
:10160000C402C092C502D092C6026092C702709214
:10161000C8028092C9029092CA02288D398D4A8DE3
:101620005B8DC901DA018093CB029093CC02A09329
:10163000CD02B093CE020E94F80290E008C0A8A1AB
:10164000B9A1EA0FFB1F8081873449F09F5FE92F22
:10165000F0E02E893F89E217F3078CF393C33D85B1
:10166000313001F586E468A179A14E895F890E9435
:1016700071097B018C0160930003709301038093D7
:10168000020390930303C801B70120E030E040E07B
:1016900050E00E94B21818162CF4C801B7010E943D
:1016A0000B0502C00E94E3056093040370930503D9
:1016B00080930603909307036091040370910503E0
:1016C000809106039091070301C289E468A179A182
:1016D0004E895F890E9471092091B7023091B8024A
:1016E0004091B9025091BA020E94DE156A8B7B8B41
:1016F0008C8B9D8B8AE468A179A14E895F890E94B9
:101700007109E090BB02F090BC020091BD02109103
:10171000BE02A80197010E94DE156E877F87888B25
:10172000998B6091B7027091B8028091B902909143
:10173000BA022A893B894C895D890E94DD1569833B
:101740007A838B839C83C801B7012E853F854889A6
:1017500059890E94DD151B012C01C601B5012A899A
:101760003B894C895D890E94DD155B016C01C401D8
:10177000B3012E853F85488959890E94DD157B017B
:101780008C018D85823089F4B701C8019501A601CD
:101790000E94511669877A878B879C87C201B101A5
:1017A00029813A814B815C8110C0C201B10129813C
:1017B0003A814B815C810E94511669877A878B87B9
:1017C0009C87B701C8019501A6010E9451167B01B3
:1017D0008C0129853A854B855C850E94B7161816C1
:1017E00054F0C801B7012BED3FE049EC50E40E94F2
:1017F000DE157B018C01C801B70129853A854B852F
:101800005C850E94DD156D837E838F839887698157
:101810007A818B819C819B01AC010E94BD187B0168
:101820008C01C201B101A20191010E94BD189B016E
:10183000AC01C801B7010E94DE150E942A193B01C4
:101840004C012D813E814F8158850E94BD18209109
:1018500023023091240240912502509126020E94D9
:10186000BE160E94A4160E9426171B0151E0452EA9
:10187000512CC101AA2797FDA095BA2F8C8F9D8F5F
:10188000AE8FBF8FA4C09D85933011F4920103C029
:10189000910124193509B901882777FD8095982F82
:1018A0000E9459177B018C016C8D7D8D8E8D9F8DD3
:1018B0000E9459179B01AC01C801B7010E94BE16D6
:1018C0009B01AC016D817E818F8198850E94BD183E
:1018D0009B01AC0169857A858B859C850E94DE150C
:1018E0007B018C01C8010E94BB165B016C01B70132
:1018F000C8010E9420197B018C01C401B301A6011B
:1019000095010E94BD189B01AC016A897B898C8975
:101910009D890E94DE156093C3027093C402809378
:10192000C5029093C602C401B301A80197010E94A9
:10193000BD189B01AC016E857F85888999890E94BD
:10194000DE156093C7027093C8028093C90290931A
:10195000CA02288D398D4A8D5B8DC901DA018093C9
:10196000CB029093CC02A093CD02B093CE020E9402
:10197000F802E0900003F09001030091020310913F
:101980000303C801B70120E030E040E050E00E94CE
:10199000B21818162CF4C801B7010E940B0502C03A
:1019A0000E94E3056093040370930503809306038C
:1019B00090930703609104037091050380910603DF
:1019C000909107030E9486060894411C511C241420
:1019D00035040CF058CF6EC180E568A179A14E891D
:1019E0005F890E9471090E942617882777FD8095DC
:1019F000982F0E94A10F5EC180E090E0A6E9B5E4B7
:101A00008093170290931802A0931902B0931A02C0
:101A100080931B0290931C02A0931D02B0931E02A0
:101A200080931F0290932002A0932102B093220280
:101A300080E792E4A1EABCE320C082E598EFACE342
:101A4000B3E48093170290931802A0931902B09305
:101A50001A0280931B0290931C02A0931D02B09364
:101A60001E0280931F0290932002A0932102B09344
:101A7000220280E090E0A0E0BFE3809323029093F5
:101A80002402A0932502B093260200C180E090E0DA
:101A9000A0E0B0E08093C3029093C402A093C5027B
:101AA000B093C6028093C7029093C802A093C90264
:101AB000B093CA028093CB029093CC02A093CD0244
:101AC000B093CE020E94F8020E94E3050E948606AF
:101AD000F1C088E568A179A14E895F890E947109EA
:101AE0003B014C0189E568A179A14E895F890E947B
:101AF00071097B018C018AE568A179A14E895F8912
:101B00000E9471095B016C018091FF02882309F436
:101B10004FC090E008C0A8A1B9A1EA0FFB1F8081C7
:101B2000883549F09F5FE92FF0E02E893F89E21761
:101B3000F3078CF330C190E008C0A8A1B9A1EA0F67
:101B4000FB1F8081893549F09F5FE92FF0E02E89E6
:101B50003F89E217F3078CF327C190E008C0A8A1E2
:101B6000B9A1EA0FFB1F80818A3549F09F5FE92FF9
:101B7000F0E02E893F89E217F3078CF31EC16092D3
:101B8000C3027092C4028092C5029092C602E09293
:101B9000C702F092C8020093C9021093CA02A09231
:101BA000CB02B092CC02C092CD02D092CE0244C001
:101BB000C801B7012091BB023091BC024091BD0227
:101BC0005091BE020E94DE157B018C01C601B50159
:101BD0002091BF023091C0024091C1025091C202D7
:101BE0000E94DE155B016C016091B7027091B80232
:101BF0008091B9029091BA02A40193010E94DE156E
:101C00006093C3027093C4028093C5029093C6028E
:101C1000C701D8018093C7029093C802A093C9025C
:101C2000B093CA02C501D6018093CB029093CC0237
:101C3000A093CD02B093CE020E94F8020E94E30569
:101C40000E94860623CF81E08093FF0233C010926A
:101C5000FF0230C080E090E0A0E0B0E08093B702E7
:101C60009093B802A093B902B093BA028093BB02DA
:101C70009093BC02A093BD02B093BE028093BF02BA
:101C80009093C002A093C102B093C2020E94F802D6
:101C900011C087E295E063E072E00E94C4143D85C4
:101CA000432F50E060E070E087E295E02AE030E00A
:101CB0000E94D21590E008C0A8A1B9A1EA0FFB1FAD
:101CC00080818D3449F09F5FE92FF0E02E893F89B4
:101CD000E217F3078CF318C08DE468A179A14E894F
:101CE0005F890E9471090E942B177B018C0166237A
:101CF00059F087E295E06AE072E00E94C41487E23E
:101D000095E06E2D0E94EE1487E295E060E072E0AF
:101D10000E94E314A1960FB6F894DEBF0FBECDBFAC
:101D2000CF91DF911F910F91FF90EF90DF90CF90B7
:101D3000BF90AF909F908F907F906F905F904F90EB
:101D40003F902F900895A090B702B090B802C09035
:101D5000B902D090BA02B8CB6090BB027090BC02BE
:101D60008090BD029090BE02CACB3091BF02388FE6
:101D70008091C002898F9091C1029A8FA091C20276
:101D8000AB8F12CCE0900003F090010300910203AE
:101D90001091030378CC6090B7027090B8028090E5
:101DA000B9029090BA02C7CEE090BB02F090BC029C
:101DB0000091BD021091BE02D0CEA090BF02B090A3
:101DC000C002C090C102D090C202D9CE87E295E095
:101DD0000E946E138823B1F087E295E00E9482137F
:101DE000982F1092B6021092B5028A30C1F08091FD
:101DF000B402E82FF0E0EC5CFD4F90838F5F80939E
:101E0000B4020DC08091B5029091B60201969093F4
:101E1000B6028093B50284E690E00E94CB0F6091F9
:101E2000B4026623C9F09A3039F08091B5029091DE
:101E3000B6028536910584F084E392E070E00E945A
:101E4000BF0980E0E82FF0E0EC5CFD4F10828F5F6F
:101E50008038C1F71092B4028091B5029091B60219
:101E6000895E934014F00E94EB02089587E295E0AA
:101E700040E05BE460E070E00E94751287E295E06C
:101E800061E172E00E94E31480E0E82FF0E0EC5C96
:101E9000FD4F10828F5F8038C1F71092B4020E940C
:101EA000FC0808950E94D90F0E94360F0E94E60E8A
:101EB000FDCF1F920F920FB60F9211242F933F93D5
:101EC0008F939F93AF93BF938091120390911303CD
:101ED000A0911403B0911503309116030196A11D32
:101EE000B11D232F2D5F2D3720F02D570196A11DF9
:101EF000B11D209316038093120390931303A093B4
:101F00001403B093150380910E0390910F03A091D9
:101F10001003B09111030196A11DB11D80930E0312
:101F200090930F03A0931003B0931103BF91AF914F
:101F30009F918F913F912F910F900FBE0F901F9007
:101F40001895EF92FF920F931F937B018C018FB72F
:101F5000F89440911203509113036091140370910F
:101F600015038FBF2FB7F89480911203909113033C
:101F7000A0911403B09115032FBF841B950BA60BE2
:101F8000B70BE816F9060A071B0760F71F910F91B8
:101F9000FF90EF900895019759F0FC01EE0FFF1F9D
:101FA000EE0FFF1F32978FB7F8943197F1F78FBF7D
:101FB0000895789484B5826084BD84B5816084BDC1
:101FC00085B5826085BD85B5816085BDEEE6F0E0B2
:101FD000808181608083E1E8F0E08081826080839D
:101FE000808181608083E0E8F0E08081816080838F
:101FF000E1EBF0E0808184608083E0EBF0E08081C1
:1020000081608083E1E9F0E080818260808380816B
:1020100081608083E1EAF0E080818260808380815A
:1020200081608083E1E2F1E0808182608083808151
:1020300081608083E0E9F0E0808181608083E0EA74
:10204000F0E0808181608083E0E2F1E08081816066
:102050008083EAE7F0E08081846080838081826011
:1020600080838081816080838081806880831092FA
:10207000C1000895282F30E0C9018D539E4FFC0107
:10208000949123583E4FF9018491882391F0E82FD1
:10209000F0E0EE0FFF1FE15DFE4FA591B4916623C6
:1020A00029F48C91909589238C9308958C91892B98
:1020B0008C930895482F50E0CA01875F9D4FFC0123
:1020C0002491CA018D539E4FFC01949143585E4F59
:1020D000FA013491332309F477C0222309F462C052
:1020E000233021F4809180008F7705C0243031F4B3
:1020F000809180008F7D8093800054C0213019F43E
:1021000084B58F7704C0223021F484B58F7D84BDDF
:1021100049C0263021F48091B0008F7705C0273068
:1021200031F48091B0008F7D8093B0003BC02830A7
:1021300021F4809190008F7705C0293031F480918F
:1021400090008F7D809390002DC02A3021F48091E3
:102150009000877FF7CF2B3021F48091A0008F77FC
:102160000BC02C3021F48091A0008F7D05C02D3054
:1021700031F48091A000877F8093A00013C02E309F
:1021800021F4809120018F770BC02F3021F48091B2
:1021900020018F7D05C0203129F480912001877FA7
:1021A00080932001E32FF0E0EE0FFF1FE75BFE4F6F
:1021B000A591B491662329F48C91909589238C93F1
:1021C00008958C91892B8C930895682F70E0CB0132
:1021D000875F9D4FFC012491CB018D539E4FFC01E5
:1021E000449163587E4FFB019491992319F420E0A8
:1021F00030E075C0222309F462C0233021F48091BD
:1022000080008F7705C0243031F4809180008F7D6D
:102210008093800054C0213019F484B58F7704C0B6
:10222000223021F484B58F7D84BD49C0263021F44D
:102230008091B0008F7705C0273031F48091B000D5
:102240008F7D8093B0003BC0283021F480919000B6
:102250008F7705C0293031F4809190008F7D809375
:1022600090002DC02A3021F480919000877FF7CF15
:102270002B3021F48091A0008F770BC02C3021F4FB
:102280008091A0008F7D05C02D3031F48091A00099
:10229000877F8093A00013C02E3021F4809120010D
:1022A0008F770BC02F3021F4809120018F7D05C0E6
:1022B000203129F480912001877F80932001892F8C
:1022C00090E0880F991F8D599E4FFC01A591B49104
:1022D0008C9120E030E0842311F021E030E0C9014E
:1022E00008951F920F920FB60F920BB60F92112402
:1022F0002F933F934F935F936F937F938F939F930E
:10230000AF93BF93EF93FF934091C600E091970383
:10231000F0919803CF01019660E870E00E94AE1939
:102320009C018091990390919A032817390739F0FD
:10233000E95EFC4F40833093980320939703FF910D
:10234000EF91BF91AF919F918F917F916F915F912D
:102350004F913F912F910F900BBE0F900FBE0F909A
:102360001F9018951F920F920FB60F920BB60F92F7
:1023700011242F933F934F935F936F937F938F938A
:102380009F93AF93BF93EF93FF934091CE00E09163
:102390001B04F0911C04CF01019660E870E00E94DC
:1023A000AE199C0180911D0490911E0428173907D5
:1023B00039F0E556FC4F408330931C0420931B04F6
:1023C000FF91EF91BF91AF919F918F917F916F910D
:1023D0005F914F913F912F910F900BBE0F900FBEC9
:1023E0000F901F9018951F920F920FB60F920BB679
:1023F0000F9211242F933F934F935F936F937F938B
:102400008F939F93AF93BF93EF93FF934091D60029
:10241000E0919F04F091A004CF01019660E870E084
:102420000E94AE199C018091A1049091A2042817EA
:10243000390739F0E15EFB4F40833093A0042093CD
:102440009F04FF91EF91BF91AF919F918F917F91E9
:102450006F915F914F913F912F910F900BBE0F9015
:102460000FBE0F901F9018951F920F920FB60F92EC
:102470000BB60F9211242F933F934F935F936F935B
:102480007F938F939F93AF93BF93EF93FF9340916D
:102490003601E0912305F0912405CF01019660E813
:1024A00070E00E94AE199C0180912505909126054F
:1024B0002817390739F0ED55FB4F40833093240539
:1024C00020932305FF91EF91BF91AF919F918F9141
:1024D0007F916F915F914F913F912F910F900BBE24
:1024E0000F900FBE0F901F9018955F926F927F9282
:1024F0008F929F92AF92BF92CF92DF92EF92FF9214
:102500000F931F93CF93DF93EC013A014B014134BA
:1025100082E458078FE0680780E078070CF07FC0FE
:1025200060E874E88EE190E0A40193010E94E31951
:102530002150304040405040CA01B90122E030E013
:1025400040E050E00E94E31959016A01A60195019B
:10255000209530954095509594E0220F331F441FED
:10256000551F9A95D1F760E074E284EF90E00E94E5
:10257000E319CA01B9012FEF30E040E050E00E94BA
:102580008F19A40193010E94E319C90181509F4F43
:10259000181619061CF4522E5A9403C0552453944D
:1025A000521A60E079E08DE390E0A40193010E946B
:1025B000E3192150304040405040CA01B90122E0A7
:1025C00030E040E050E00E94E319209530954095BE
:1025D000509583E0220F331F441F551F8A95D1F772
:1025E00060E074E284EF90E00E94E319CA01B9014F
:1025F0002FEF30E040E050E00E948F19A4019301DA
:102600000E94E319C90181509F4F181619061CF446
:10261000822F815002C081E0821B851500F5E8857C
:10262000F98581E090E00A8802C0880F991F0A941A
:10263000E2F7808360E079E08DE390E0A40193010C
:102640000E94E3192150304040405040CA01B90176
:1026500022E030E040E050E00E94E31904C0E88549
:10266000F98510829501EC81FD813083EE81FF8137
:102670002083EA85FB85208141E050E0CA010E8479
:1026800002C0880F991F0A94E2F7282B2083EA855D
:10269000FB852081CA010F8402C0880F991F0A940C
:1026A000E2F7282B2083EA85FB858081088802C019
:1026B000440F551F0A94E2F7842B8083DF91CF915A
:1026C0001F910F91FF90EF90DF90CF90BF90AF9050
:1026D0009F908F907F906F905F900895DC0112968D
:1026E000ED91FC911397E058FF4F819191918058A3
:1026F0009F4F20813181821B930B60E870E00E9424
:10270000AE190895CF93DF93DC011296ED91FC9101
:102710001397EF01CE57DF4F48815981E058FF4FA3
:1027200080819181E058F0408417950719F42FEFCC
:102730003FEF0CC0E40FF51F2081CA01019660E84D
:1027400070E00E94AE199983888330E0C901DF915F
:10275000CF910895FC01A085B18521898C9190E0ED
:10276000022E02C0959587950A94E2F780FFF6CF76
:102770000484F585E02D608308952EE232E03093E5
:1027800028052093270587E193E090932A058093FD
:10279000290585EC90E090932C0580932B0584EC23
:1027A00090E090932E0580932D0580EC90E090931F
:1027B000300580932F0581EC90E090933205809353
:1027C000310586EC90E09093340580933305E4E086
:1027D000E093350573E07093360567E06093370545
:1027E00055E05093380541E04093390530933B055F
:1027F00020933A058BE993E090933D0580933C0547
:102800008DEC90E090933F0580933E058CEC90E03A
:10281000909341058093400588EC90E090934305A8
:102820008093420589EC90E09093450580934405A0
:102830008EEC90E09093470580934605E093480521
:102840007093490560934A0550934B0540934C059E
:1028500030934E0520934D058FE194E09093500501
:1028600080934F0585ED90E090935205809351053C
:1028700084ED90E0909354058093530580ED90E0B3
:10288000909356058093550581ED90E090935805FF
:102890008093570586ED90E090935A0580935905F3
:1028A000E0935B0570935C0560935D0550935E0556
:1028B00040935F05309361052093600583EA94E0BF
:1028C000909363058093620585E391E0909365059D
:1028D0008093640584E391E0909367058093660597
:1028E00080E391E0909369058093680581E391E02E
:1028F00090936B0580936A0586E391E090936D0554
:1029000080936C05E0936E0570936F05609370057E
:10291000509371054093720508950F931F93CF93C1
:10292000DF938C01EB0109C02196D801ED91FC9158
:102930000190F081E02DC801099568816623A1F717
:10294000DF91CF911F910F910895EF92FF920F9316
:102950001F93CF93DF938C017B01EA010CC0D70159
:102960006D917D01D801ED91FC910190F081E02DF8
:10297000C80109952197209791F7DF91CF911F9179
:102980000F91FF90EF900895DC01ED91FC91028092
:10299000F381E02D099508950F931F938C01DC01BD
:1029A000ED91FC910190F081E02D6DE00995D80149
:1029B000ED91FC910190F081E02DC8016AE009954C
:1029C0001F910F9108950F931F938C010E94C414BF
:1029D000C8010E94CC141F910F9108950F931F936B
:1029E0008C01DC01ED91FC910190F081E02D0995C5
:1029F000C8010E94CC141F910F9108952F923F920D
:102A00004F925F926F927F928F929F92AF92BF92FE
:102A1000CF92DF92EF92FF920F931F93DF93CF93AA
:102A2000CDB7DEB7A0970FB6F894DEBF0FBECDBF0F
:102A30001C016A017B01411551056105710549F4CD
:102A4000DC01ED91FC910190F081E02D60E30995AE
:102A500054C0882499245401422E55246624772496
:102A600001E010E00C0F1D1F080D191DC701B60174
:102A7000A30192010E94C119F80160830894811C8E
:102A8000911CA11CB11CC701B601A30192010E94B7
:102A9000C119C901DA016C017D01C114D104E1043D
:102AA000F104F1F681E0E82EF12CEC0EFD1EE80CAD
:102AB000F91C3E010894611C711CD501C4010197E9
:102AC000A109B1096C01C818D90814C0F601EE0DAE
:102AD000FF1D60816A3010F4605D01C0695CD10146
:102AE000ED91FC910190F081E02DC10109950894D0
:102AF000E108F1086E147F0449F7A0960FB6F89428
:102B0000DEBF0FBECDBFCF91DF911F910F91FF9020
:102B1000EF90DF90CF90BF90AF909F908F907F907D
:102B20006F905F904F903F902F900895EF92FF929B
:102B30000F931F93CF93DF93EC017A018B0177FF03
:102B40000FC0E881F9810190F081E02D6DE20995D7
:102B500010950095F094E094E11CF11C011D111DED
:102B6000CE01B801A7012AE00E94FE14DF91CF91A7
:102B70001F910F91FF90EF900895DC012115310511
:102B800041F4ED91FC910190F081E02D642F0995C5
:102B900008952A30310519F40E94961508950E946F
:102BA000FE1408950F931F938C010E94BD15C80158
:102BB0000E94CC141F910F9108955058BB27AA274B
:102BC0000ED06EC22ED230F033D220F031F49F3FBF
:102BD00011F41EF4FEC10EF4E095E7FBC9C1E92F24
:102BE00081D280F3BA17620773078407950718F03C
:102BF00071F49EF5B0C20EF4E0950B2EBA2FA02D05
:102C00000B01B90190010C01CA01A0011124FF2799
:102C1000591B99F0593F50F4503E68F11A16F04094
:102C2000A22F232F342F4427585FF3CF4695379593
:102C30002795A795F0405395C9F77EF41F16BA0B58
:102C4000620B730B840BBAF09150A1F0FF0FBB1F06
:102C5000661F771F881FC2F70EC0BA0F621F731F4F
:102C6000841F48F4879577956795B795F7959E3FAC
:102C700008F0B3CF9395880F08F09927EE0F97953A
:102C800087950895CED158F080E891E009F49EEF41
:102C9000CFD128F040E851E059F45EEF09C099C166
:102CA0005AC2E92FE0781ED268F3092E052AC1F333
:102CB000261737074807590738F00E2E07F8E02582
:102CC00069F0E025E0640AC0EF6307F8009407FAB2
:102CD000DB01B9019D01DC01CA01AD01EF935DD0BB
:102CE000DFD10AD05F91552331F02BED3FE049E46D
:102CF00050FD49EC63CF0895DF93DD27B92FBF77EF
:102D000040E85FE31616170648075B0710F4D92F53
:102D10002DD29F938F937F936F93E6D2E4EEF0E0F2
:102D20005BD1BED12F913F914F915F9132D2DD2384
:102D300049F09058A2EA2AED3FE049EC5FE3D078F1
:102D40005D274DDFDF91ACC1EFD180F09F3740F4BC
:102D500091110EF401C260E070E080E89FE30895F5
:102D600026F01B16611D711D811D08C122C1DCD01A
:102D700008F481E0089564D1E395A3C10CD090C11B
:102D800057D140F04ED130F021F45F3F19F0F0C040
:102D90005111E2C11EC1A6D198F39923C9F355235D
:102DA000B1F3951B550BBB27AA276217730784073E
:102DB00038F09F5F5F4F220F331F441FAA1FA9F3F4
:102DC00033D00E2E3AF0E0E830D091505040E695E6
:102DD000001CCAF729D0FE2F27D0660F771F881F47
:102DE000BB1F261737074807AB07B0E809F0BB0B36
:102DF000802DBF01FF2793585F4F2AF09E3F51055A
:102E000068F0B6C0A9C15F3FECF3983EDCF386954D
:102E100077956795B795F7959F5FC9F7880F911DCF
:102E20009695879597F90895E1E0660F771F881FBB
:102E3000BB1F621773078407BA0720F0621B730B6E
:102E4000840BBA0BEE1F88F7E095089504D06894C0
:102E5000B11182C108954ED188F09F5790F0B92FDB
:102E60009927B751A0F0D1F0660F771F881F991FDF
:102E70001AF0BA95C9F712C0B13081F06CD1B1E047
:102E8000089569C1672F782F8827B85F39F0B93F57
:102E9000CCF3869577956795B395D9F73EF49095E1
:102EA0008095709561957F4F8F4F9F4F0895E8945F
:102EB00009C097FB3EF490958095709561957F4F82
:102EC0008F4F9F4F9923A9F0F92F96E9BB27939530
:102ED000F695879577956795B795F111F8CFFAF440
:102EE000BB0F11F460FF1BC06F5F7F4F8F4F9F4F71
:102EF00016C0882311F096E911C0772321F09EE8CF
:102F0000872F762F05C0662371F096E8862F70E034
:102F100060E02AF09A95660F771F881FDAF7880F0E
:102F20009695879597F90895990F0008550FAA0B64
:102F3000E0E8FEEF16161706E807F907C0F01216CC
:102F40001306E407F50798F0621B730B840B950BCF
:102F500039F40A2661F0232B242B252B21F4089524
:102F60000A2609F4A140A6958FEF811D811D0895C1
:102F700097F99F6780E870E060E00895882371F416
:102F8000772321F09850872B762F07C0662311F402
:102F900099270DC09051862B70E060E02AF09A9539
:102FA000660F771F881FDAF7880F9695879597F930
:102FB00008959F3F49F0915028F48695779567953D
:102FC000B7959F5F80389F4F880F9695879597F9A3
:102FD00008959FEF80EC0895DF93CF931F930F9395
:102FE000FF92EF92DF927B018C01689405C0DA2E8C
:102FF000EF01CFD0FE01E894A5912591359145913F
:103000005591AEF3EF01EBDDFE019701A801DA94D3
:1030100079F7DF90EF90FF900F911F91CF91DF91A3
:10302000089500240A94161617061806090608952E
:1030300000240A9412161306140605060895C9CF33
:1030400059D0E8F3E894EFEFBB273FE048EC5FE7A7
:103050006B3D73078407950708F1FF279F57B25A06
:103060006A4D7F40894CF04032F4BE556542704F46
:103070008643FF4F0894EE1F915030F0BB0F661F40
:10308000771F881FFF1FEBCF9EE7882332F0BB0F0F
:10309000661F771F881F9A95C1F79395E09589CF92
:1030A000092E0394000C11F4882352F0BB0F40F456
:1030B000BF2B11F460FF04C06F5F7F4F8F4F9F4F96
:1030C0000895EF93E0FF06C0A2EA2AED3FE049EC45
:1030D0005FEB85DDE5DF0F90039401FC9058E1E1A3
:1030E000F1E00CC157FD9058440F551F59F05F3F58
:1030F00071F04795880F97FB991F61F09F3F79F01A
:1031000087950895121613061406551FF2CF46959B
:10311000F1DF08C0161617061806991FF1CF86951D
:103120007105610508940895E5DFA0F0BEE7B917C1
:1031300088F4BB279F3860F41616B11D672F782FCF
:103140008827985FF7CF869577956795B11D9395FA
:103150009639C8F30895E894BB2766277727CB01F3
:1031600097F90895E1DE08F48FEF08959B01AC0113
:1031700060E070E080E89FE301CE0BD091CF51DF9B
:1031800028F056DF18F0952309F0F2CE22CF112453
:10319000E3CFA8DFA0F3959FD1F3950F50E0551F23
:1031A000629FF001729FBB27F00DB11D639FAA279C
:1031B000F00DB11DAA1F649F6627B00DA11D661FEB
:1031C000829F2227B00DA11D621F739FB00DA11D0C
:1031D000621F839FA00D611D221F749F3327A00DC6
:1031E000611D231F849F600D211D822F762F6A2F62
:1031F00011249F5750408AF0E1F088234AF0EE0FE7
:10320000FF1FBB1F661F771F881F91505040A9F7F3
:103210009E3F510570F0ACCE9FCF5F3FECF3983EE0
:10322000DCF3869577956795B795F795E7959F5F5A
:10323000C1F7FE2B880F911D9695879597F90895F4
:103240009F93FEDE0F9007FCEE5F3BCF11F40EF470
:10325000C0CEAFCE4FDFD0F39923D9F3CEF39F5733
:10326000550B87FF44D056959795B0E020F4660F34
:10327000771F881FBB1F1F930F9300249001A0018D
:103280008001F001A0E80E0F1F1F0A1E511D601BD8
:10329000710B8009B50B48F4600F711F801DB51FBD
:1032A0000E1B1F0B0A0A510907C02E0F3F1F4A1F92
:1032B0000E0F1F1F0A1E511D660F771F881FBB1F91
:1032C000A695F795E795F8F60617170708065B0722
:1032D000211D311D411D0F911F91B901842F91585E
:1032E000880F9695879508959B01AC0146CF915024
:1032F0005040660F771F881FD2F708959F938F93D2
:103300007F936F93FF93EF939B01AC0136DFEF91B7
:10331000FF9162DE2F913F914F915F912ECF629F7F
:10332000D001739FF001829FE00DF11D649FE00DBD
:10333000F11D929FF00D839FF00D749FF00D659F1E
:10334000F00D9927729FB00DE11DF91F639FB00D1D
:10335000E11DF91FBD01CF011124089597FB092E2E
:1033600007260AD077FD04D049D006D000201AF4F1
:10337000709561957F4F0895F6F7909581959F4FD1
:103380000895A1E21A2EAA1BBB1BFD010DC0AA1FA6
:10339000BB1FEE1FFF1FA217B307E407F50720F0BE
:1033A000A21BB30BE40BF50B661F771F881F991F39
:1033B0001A9469F760957095809590959B01AC0182
:1033C000BD01CF01089597FB092E05260ED057FDAC
:1033D00004D0D7DF0AD0001C38F4509540953095C2
:1033E00021953F4F4F4F5F4F0895F6F79095809589
:1033F000709561957F4F8F4F9F4F0895AA1BBB1B00
:1034000051E107C0AA1FBB1FA617B70710F0A61BE4
:10341000B70B881F991F5A95A9F780959095BC0105
:10342000CD010895EE0FFF1F0590F491E02D099452
:10343000911106C0803219F089508550D0F7089557
:103440009927882708952F923F924F925F926F920B
:103450007F928F929F92AF92BF92CF92DF92EF9224
:10346000FF920F931F93CF93DF93CDB7DEB7CA1BA5
:10347000DB0B0FB6F894DEBF0FBECDBF09942A88D0
:10348000398848885F846E847D848C849B84AA8478
:10349000B984C884DF80EE80FD800C811B81AA8105
:1034A000B981CE0FD11D0FB6F894DEBF0FBECDBFD0
:0834B000ED010895F894FFCF2F
:1034B8006F6B006875683F2047004875683F204D6E
:1034C8000073746172740000009645000096450010
:1034D8000096457042A13C01010100000000AA13BA
:0434E8008D14A51486
:00000001FF
